:020000040800F2
:10000000D0060020D90100089306000883060008E6
:100010008F060008AD040008111000080000000061
:10002000000000000000000000000000C10A0008FD
:10003000C7040008000000005B070008950B0008DB
:100040001510000859070008F90B0008B70A000846
:10005000D7040008110A0008C9040008CD040008EC
:10006000CF040008D1040008D3040008B10400083C
:10007000B3040008B5040008B7040008B904000878
:10008000BB040008BD040008A9040008F30100082F
:10009000F3010008F3010008F3010008D50400088B
:1000A000FB0B0008010C0008FF0B0008FD0B00080B
:1000B000030C0008050C0008070C0008890600085E
:1000C000870600088D0600088B060008BB0A00089A
:1000D000BD0A0008B90C00084D0D0008C50D000848
:1000E000CB040008B50A00080F1000080F0C000828
:1000F000150C0008130C0008110C0008AB040008D4
:100100000D050008B90A0008090C0008BF0A00081C
:10011000170C0008190C00080B0C00080D0C000847
:10012000BF040008C1040008C3040008C504000897
:1001300000F002F800F041F80AA090E8000C8244B8
:100140008344AAF10107DA4501D100F036F8AFF295
:10015000090EBAE80F0013F0010F18BFFB1A43F0A5
:1001600001031847E01C0000001D0000103A24BFE6
:1001700078C878C1FAD8520724BF30C830C144BF0C
:1001800004680C607047000000230024002500264E
:10019000103A28BF78C1FBD8520728BF30C148BFEA
:1001A0000B607047642900F07B80002070471FB50A
:1001B00001F03BFE1FBD10B510BD00F03FF9114628
:1001C000FFF7F5FF00F070FF00F05DF903B4FFF7F3
:1001D000F2FF03BC00F01FFF0948804709480047B1
:1001E000FEE7FEE7FEE7FEE7FEE7FEE7FEE7FEE7E7
:1001F000FEE7FEE704480549054A064B7047000044
:10020000990B000831010008D0000020D006002022
:10021000D0020020D0020020704700000FB4044933
:1002200010B503AA029800F0D3F810BC5DF814FBD7
:10023000200000202DE9F04104460E4600200AE08F
:10024000E1682046884738B3252806D0D4E9012143
:100250009047206A401C2062F2E7E16820460027B0
:100260008847050018D0A5F14100192802D820358B
:100270004FF400673246294620462760FFF792FF79
:1002800040B1012804D0F61D26F007060836D7E74E
:10029000361DD5E72846D9E7206ABDE8F081000081
:1002A0002DE9F0418046002610687529414615A5C4
:1002B00012D0AFF30080002803DAC0F1000012A5CD
:1002C00008E0D8F800108A0701D510A502E0490718
:1002D00004D50FA5012601E0AFF30080002408F14A
:1002E000240704E000F086F830313955641C0028FA
:1002F000F8D133462A4621464046BDE8F04100F099
:100300000DB80000000000002D0000002B000000D0
:100310002000000070477047704770472DE9F04794
:100320000D4604469246994600F124080168880665
:1003300004D5E06921F01001216000E001200027D0
:10034000A84201DDA0EB0507A16907EB050202EB5E
:100350000300A1EB0000A0612068C00602D4204683
:10036000AFF30080002608E0D4E901211AF8060066
:100370009047206A401C761C20624E45F4DB2068C2
:10038000C0060AD52046AFF3008006E0D4E901217B
:1003900030209047206A401C2062381EA7F10107D8
:1003A000F4DC07E0D4E9012118F805009047206A41
:1003B000401C2062281EA5F10105F3DC2046AFF3A6
:1003C000008021680220090600D40120BDE8F087E2
:1003D000074B70B50C467B4400F019F805462046E3
:1003E00000F028F810B14FF0FF3070BD284670BD06
:1003F000B30C00004FF00A01B0FBF1F202FB110157
:100400001046704701694A1C02610878704700B5C0
:100410008FB0CDE901310021059105497944CDE93D
:10042000031011466846FFF705FF0FB000BD00003E
:10043000E5FFFFFFC06800F080007047754600F0E0
:1004400029F8AE4605006946534620F00700854668
:1004500018B020B5FFF7CEFEBDE820404FF00006F3
:100460004FF000074FF000084FF0000B21F007019C
:10047000AC46ACE8C009ACE8C009ACE8C009ACE8DF
:10048000C0098D4670470446AFF300802046FFF751
:100490009DFE0000004870476C0000200148704736
:1004A000704700BF700000207047704700BFFEE734
:1004B0007047704770477047704770477047704784
:1004C0007047704770477047704770477047704774
:1004D00070477047704770470549096821F010015F
:1004E000034A11601146096801431160704700001A
:1004F0000020024001460020034A106800F0380046
:100500000843106070470000002002407047000060
:1005100008B50121082000F041F90121202000F058
:100520003DF90F20ADF8000010208DF803000320E6
:100530008DF8020069460B4800F018F847F20101F7
:10054000094800F09CF84FF4E040ADF8000010209E
:100550008DF8030002208DF802006946024800F081
:1005600005F808BD00140140000C01402DE9F041E0
:10057000024600250026002000230024002791F8D1
:1005800003C00CF00F0591F803C01CF0100F03D04E
:1005900091F802C04CEA0505B1F800C01CF0FF0F4D
:1005A00031D0146800202BE04FF0010C0CFA00F35E
:1005B000B1F800C00CEA03069E4220D183004FF040
:1005C0000F0C0CFA03F7BC4305FA03FC4CEA0404D5
:1005D00091F803C0BCF1280F06D14FF0010C0CFAC2
:1005E00000FCC2F814C00AE091F803C0BCF1480F47
:1005F00005D14FF0010C0CFA00FCC2F810C0401CF1
:100600000828D1D31460B1F800C0BCF1FF0F34DD6D
:10061000546800202EE000F1080C4FF0010808FAA1
:100620000CF3B1F800C00CEA03069E4221D183000E
:100630004FF00F0C0CFA03F7BC4305FA03FC4CEA2D
:10064000040491F803C0BCF1280F05D100F1080C97
:1006500008FA0CF8C2F8148091F803C0BCF1480FF6
:1006600007D100F1080C4FF0010808FA0CF8C2F8A5
:100670001080401C0828CED35460BDE8F081016191
:10068000704700BFFEE7704770477047704700BF74
:10069000FEE7704708B54FF4A06000F053F826203D
:1006A0008DF8000001208DF8010002208DF8020075
:1006B00001208DF80300684600F002F808BD000034
:1006C00070B5002100230F22C4784CB31A4C246863
:1006D00004F4E064C4F5E0644FEA1421C1F10403BA
:1006E00022FA01F2447804FA03F1847804EA02045D
:1006F00044EA01014FEA0111104C0678A155047833
:1007000004F01F054FF0010404FA05F405784FEAE0
:1007100065154FF0E02606EB8505C5F8004109E0B8
:10072000047804F01F050124AC40054D06787611CD
:1007300045F8264070BD00000CED00E000E400E04C
:1007400080E100E002490143024A11607047000065
:100750000000FA050CED00E07047704729B1064A29
:10076000D2690243044BDA6104E0034AD26982434E
:10077000014BDA61704700000010024029B1064ABF
:1007800012690243044B1A6104E0034A126982436E
:10079000014B1A61704700000010024029B1064A5F
:1007A00092690243044B9A6104E0034A92698243CE
:1007B000014B9A61704700000010024029B1064ABF
:1007C000D2680243044BDA6004E0034AD2688243F1
:1007D000014BDA60704700000010024010B500F0D5
:1007E0002FF84FF4803000F0EDF800F04BF904469C
:1007F000012C24D11020FFF76FFE0220FFF77AFEB4
:10080000002000F0D3F8002000F010F9A00200F062
:1008100001F94FF4E011200400F01AF9012000F072
:1008200011F900BF392000F09BF80028FAD002200F
:1008300000F01CF900BF00F0B1F80828FBD110BD92
:100840000F48006840F001000D4908600846406804
:100850000C4908400A494860084600680A490840AF
:10086000074908600846006820F4802008600846B0
:10087000406820F4FE0048604FF41F008860704715
:10088000001002400000FFF8FFFFF6FE30B5002127
:100890000022002400232D4D6D6805F00C0121B1CC
:1008A000042905D0082923D105E0294D056022E05F
:1008B000274D05601FE0254D6D6805F47012234D2E
:1008C0006D6805F48034022505EB92421CB9214D78
:1008D000554305600BE01D4D6D6815F4003F03D0D6
:1008E0001C4D5543056002E0194D5543056002E07B
:1008F000174D056000BF00BF144D6D6805F0F00195
:100900000909154D6B5C0568DD4045600F4D6D684C
:1009100005F4E061090A104D6B5C4568DD408560B7
:100920000A4D6D6805F46051C90A0B4D6B5C456852
:10093000DD40C560054D6D6805F44041890B074DEC
:100940006B5CC568B5FBF3F5056130BD0010024076
:1009500000127A0000093D00080000201800002065
:1009600010B501460022002300204A11012A02D1BD
:10097000094C236806E0022A02D1074C236A01E0F1
:10098000054C636A01F01F02012494401C4201D00F
:10099000012000E0002010BD001002400248406825
:1009A00000F00C00704700000010024001460020DB
:1009B000034A506820F0F000084350607047000080
:1009C000001002401149096821F480310F4A11607A
:1009D0001146096821F480211160B0F5803F03D0F1
:1009E000B0F5802F0ED106E00849096841F4803146
:1009F000064A116007E00549096841F4A021034A4D
:100A0000116000E000BF00BF70470000001002400E
:100A10007047000001460020034A506820F4E0605F
:100A2000084350607047000000100240014600205B
:100A3000034A506820F4605040EAC100506070479B
:100A40000010024001490866704700000000424261
:100A500002460020044B586820F47C1042EA01034F
:100A60001843014B586070470010024001460020B7
:100A7000034A506820F003000843506070470000AC
:100A80000010024070B500240025002600BF312070
:100A9000FFF766FF0646641CB4F5A06F01D0002E78
:100AA000F5D03120FFF75CFF08B1012500E00025FB
:100AB000284670BD70477047704770477047704751
:100AC000704710B500F002F810BD000000210020B2
:100AD0002E4A126842F480322C4B1A6000BF2B4A17
:100AE000126802F40030491C10B9B1F5A06FF6D1BC
:100AF000264A126812F4003F01D0012000E00020D5
:100B0000012842D1224A126842F01002204B1A609A
:100B10001A46126822F003021A601A46126842F05E
:100B200002021A60194A5268184B5A601A465268F3
:100B30005A601A46526842F480625A601A465268F5
:100B400022F47C125A601A46526842F4E8125A6043
:100B50001A46126842F080721A6000BF0B4A12688F
:100B600012F0007FFAD0094A526822F00302074BC4
:100B70005A601A46526842F002025A6000BF034AA5
:100B8000526802F00C02082AF9D1704700100240A6
:100B9000002002407047000010B51348006840F084
:100BA00001001149086008464068104908400E4994
:100BB0004860084600680E4908400B49086008462E
:100BC000006820F4802008600846406820F4FE0099
:100BD00048604FF41F008860FFF773FF4FF000601C
:100BE0000449086010BD0000001002400000FFF83A
:100BF000FFFFF6FE08ED00E0704770477047704752
:100C0000704770477047704770477047704770472C
:100C100070477047704770477047000000B585B057
:100C200001210520FFF7BAFD01218803FFF7B6FD7A
:100C30001F4800F0DDF84FF40070ADF810001820E8
:100C40008DF8130003208DF8120004A91948FFF74E
:100C50008DFC4FF48060ADF8100048208DF8130033
:100C600004A91448FFF782FC4FF4165000900020AE
:100C7000ADF80400ADF80600ADF80800ADF80C00C2
:100C80000C20ADF80A006946094800F04FF901222E
:100C900040F22551064800F023F90121044800F0F4
:100CA0009BF84021024800F08EF805B000BD00001E
:100CB00000380140000801407047000000B585B0D1
:100CC00001214804FFF74AFD01210520FFF766FDD9
:100CD0000420ADF8100018208DF8130003208DF8C3
:100CE000120004A91748FFF741FC0820ADF81000D6
:100CF00048208DF8130004A91248FFF737FC4FF481
:100D0000165000900020ADF80400ADF80600ADF8D4
:100D10000800ADF80C000C20ADF80A0069460A483E
:100D200000F004F9012240F22551074800F0D8F8FC
:100D30000121054800F050F84021034800F043F835
:100D400005B000BD000801400044004010B540F26D
:100D50002551174800F09AF838B3154800F052F9B9
:100D60001449154A127888541348007820B9084667
:100D70000078552800D010BD0F480078401C0E495F
:100D80000870084600780B280FD10C4809490A68FA
:100D900002604A6842600A890281897A8172002071
:100DA0000549087001200649087000BFE3E700000C
:100DB000004400405E0000200400002048000020A5
:100DC00005000020704701F40072B2F5007F00D1E9
:100DD00000BFCA430280704721B1828942F40052A9
:100DE000828104E082894DF6FF731A408281704748
:100DF00010B504462048844209D101218803FFF739
:100E0000DDFC00214FF48040FFF7D8FC32E01B48A6
:100E1000844209D101214804FFF7B0FC00214FF4BE
:100E20000030FFF7ABFC25E01548844209D10121D1
:100E30008804FFF7A3FC00214FF48020FFF79EFCFD
:100E400018E01048844209D10121C804FFF796FC3C
:100E500000214FF40020FFF791FC0BE00A48844288
:100E600008D101210805FFF789FC00214FF480100B
:100E7000FFF784FC10BD0000003801400044004032
:100E800000480040004C00400050004070B5024651
:100E90000024002300250020A1F510666A3E00D141
:100EA00000BFC1F3421501F01F03012606FA03F348
:100EB000012D02D19689334006E0022D02D1168A17
:100EC000334001E0968A33400C12012606FA04F4FE
:100ED0001688344013B10CB1012000E0002070BD31
:100EE000F0B503460024002600250020A1F5106778
:100EF0006A3F00D100BF1846C1F3421401F01F063B
:100F0000012707FA06F5012C01D10C3004E0022C70
:100F100001D1103000E014301AB107682F43076088
:100F200002E00768AF430760F0BD00002DE9F0471D
:100F300086B005460E460024A24600BFA146002703
:100F4000B08900B100BF2F462C8A4CF6FF700440D8
:100F5000F08804432C82AC894EF6F3100440B0882C
:100F600031890843718908430443AC81AC8A4FF648
:100F7000FF400440B0890443AC8201A8FFF786FC1F
:100F80001F48874202D1DDF810A001E0DDF80CA077
:100F9000A88910F4004F08D00AEBCA0000EB0A1031
:100FA00031684900B0FBF1F807E00AEBCA0000EB3A
:100FB0000A1031688900B0FBF1F86420B8FBF0F04A
:100FC00004012009642101FB1089A88910F4004F55
:100FD00008D0322000EBC900B0FBF1F000F00700B0
:100FE000044308E0322000EB09106421B0FBF1F06B
:100FF00000F00F0004432C8106B0BDE8F08700002C
:101000000038014001468888C0F3080070477047E7
:1010100000BFFEE77047014600BF70474FF0E02178
:10102000096921F004014FF0E0221161C21700EBC1
:101030005272D210044B1A70194609784FF47A7222
:101040005143024A118070471C0000201E000020FE
:1010500001460D4A12884A434FF0E0235A610022AC
:101060009A6101221A6100BF4FF0E022106910F06E
:10107000010F02D010F4803FF6D000224FF0E023A1
:101080001A619A61704700001E00002000BF044AE8
:10109000128812F0400FFAD0C2B2024B1A80704789
:1010A000003801400438014086B0FFF797FBFFF796
:1010B0002FFA4820FFF7B2FFFFF7ECFAFFF7AEFD7B
:1010C000FFF7FCFDC820FFF7C3FFB9A0FFF7A6F8A4
:1010D0006CE1BA480078F0B3B948016803914168FF
:1010E00004910189ADF81410807A8DF81600002063
:1010F000B2490870B248007855282CD1B0484078E1
:10110000512804D0522865D053287ED1C5E09DF8DF
:101110000E109DF80F2041EA022108B200F0A2FB58
:1011200080460022A74B00F045FA06460022A64B57
:1011300000F0B0FB044600F065F9A44908609DF892
:1011400010109DF8112041EA022108B200F08AFB3C
:101150000646002200E026E19A4B00F02BFA80467A
:101160000022994B00F096FB044600F04BF997499A
:1011700048609DF812109DF8132041EA022108B240
:1011800000F070FB804600228E4B00F013FA0646FA
:1011900000228D4B00F07EFB044600F033F98B49B2
:1011A00088609DF814109DF8152041EA022108B2CC
:1011B00000F058FB80460022854B00F0FBF9064604
:1011C0000022844B00F050F9044600F01BF98249DC
:1011D0000860E7E09DF80E109DF80F2041EA02211B
:1011E00008B200F03FFB06460022764B00F0E2F921
:1011F00004460022794B00F04DFB804600F002F9D6
:10120000774908609DF8101000E0CAE09DF81120B1
:1012100041EA022108B200F025FB80460022694B1A
:1012200000F0C8F9064600226C4B00F033FB044680
:1012300000F0E8F86A4948609DF812109DF8132004
:1012400041EA022108B200F00DFB064600225D4B88
:1012500000F0B0F980460022604B00F01BFB044612
:1012600000F0D0F85E4988609DF814109DF81520B4
:1012700041EA022108B200F0F5FA80460022544B00
:1012800000F098F906460022524B00F0EDF80446B3
:1012900000F0B8F85049086084E09DF80E109DF801
:1012A0000F2041EA022108B200F0DCFA8046002259
:1012B000444B00F07FF9044600224A4B00F0EAFA62
:1012C000064600F09FF8484908609DF810109DF808
:1012D000112041EA022108B200F0C4FA804600223F
:1012E000384B00F067F9064600223E4B00F0D2FA78
:1012F000044600F087F83C4948609DF812109DF8BC
:10130000132041EA022108B200F0ACFA8046002224
:101310002C4B00F04FF904460022324B00F0BAFA91
:10132000064600F06FF8304988609DF814109DF86B
:10133000152041EA022108B200F094FA0446002286
:10134000234B00F037F980460022224B00F08CF846
:10135000064600F057F82049086023488168234872
:1013600000F09CFC074600F07DFC04461E484168E6
:101370001E4800F093FC074600F074FC05461A482E
:1013800001681A4800F08AFC074600F06BFC06462C
:1013900023462A46014616A0CDE900ABFEF73EFFE4
:1013A00000E000BF00BF3220FFF752FE91E60000D0
:1013B00068656C6C6F2073746D333200050000201B
:1013C000480000200000E0400000304024000020E1
:1013D00000407540002042400000002000409F4037
:1013E00030000020008066403C00002000002041CA
:1013F000442325643A25643A25642325643A256408
:101400000A00000021F00042A2F16052B2F5801FF4
:1014100001F0004328BFD2F17F6C0BD95FEA001CBA
:1014200043EAC20242EB507018BF704728BF20F059
:1014300001007047B2F5801FBCBF184670474FEAE5
:10144000410C1CF5001F02D2084600F0F5BC70B537
:1014500000F0CAFA00000089FFF7F6BF4FF0004025
:10146000A0F580007047000010B591EA030F48BF57
:1014700083F0004300F11483841A71EB030E05D24C
:10148000121943EB0E03001B61EB0E01DFF820C1C4
:101490004FEA1154A4EB135E1CEA430F18BF9CEAF9
:1014A000445F71D023EA0C03DEF1200C21EA0451E1
:1014B00043F4801332D322FA0EFC10EB0C0023FA13
:1014C0000EFC41EB0C01CEF1200C03FA0CFC10EBEE
:1014D0000C0051F10001B1F5801FCEF1200C32D289
:1014E00001EB0451BDE8104012FA0CF258BF7047EE
:1014F000401C38BF5FEA420218BF7047002814BF83
:1015000020F0010041F100014FEA410313F5001FF3
:1015100038BF7047A1F1C04100F0B4BA012A43EBD3
:101520000302AEF1200EDEF11F0C32BF4FF0000CB3
:1015300023FA0EF310EB030041EB0451B4EB115FFF
:10154000D0D0A1EB045101F58011490801EB045101
:10155000BDE810405FEA30000CD350F1000038BF06
:1015600012FA0CFC06D1C9E7401C38BF5FEA420200
:10157000CAD1C3E74FEA410313F5001F38BF7047D4
:10158000A1F1C04100F07EBA9CEA445F08D0BDE8FA
:10159000104011EA5C0F04BF01F0004100207047C9
:1015A000BDE8104070B500F01FFA00BF64FBBE3EFE
:1015B0000000E0FF2DE9C04130B4DFF8A0C23CEAF2
:1015C000111418BF3CEA131400F0EC8081EA030503
:1015D0001CEA111444EAD57418BF1CEA131500F074
:1015E000C780A4EB05044FF0004545EAC12145EA58
:1015F000C32341EA505143EA525304F17F749942A4
:1016000004F500344FEAC0204FEAC22208BF9042DE
:1016100000F09C804FEA13650FF24016765D4FEAAA
:10162000134506FB05F7C7F1807706FB07F74FEA7E
:10163000D737A7FB03687642C8F58038A7FB06CEEC
:1016400038BFA8F1010807FB08E64FF0000EA6FB23
:10165000028CE6FB03CEDCF1000CCEF1004E38BF6D
:10166000AEF1010EA6FB0C584FF000074FF000053D
:10167000E6FB0E87A1FB08C6A0FB07CE16EB0E0605
:1016800045F10005E1FB076515F1E04E7EBFA4F5CD
:1016900080345FEA46066D4116F1800745F100058A
:1016A0004FEA17274FEA066647EA0567A6F1DE46C6
:1016B000B6F1805F4FEA15251FD9384624F0010C9A
:1016C00005EBC471BCF1FE6F01EB0C1102D8F0BC4C
:1016D000BDE8008124425CBF01F5801E9EEAC47F04
:1016E00002D4F0BCBDE80081244238D4F0BCA1F1A2
:1016F000C041BDE8004100F0C5B94FEAD22242EA3C
:1017000043524FEAD323A7FB02864FEAD02040EA98
:10171000415007FB03661EEA0E0F4FEAD12105FB7D
:10172000026658BFA6EB0056B6EB00564FEA520EC3
:101730004EEAC37E18EB0E0E56EB530EBDD518EBDA
:1017400002085E417F1C55F10005B6E74FF4801595
:101750004FF000074FF000064FF00008ADE7F0BC77
:101760004FF0000001F1C04101F00041BDE80081EF
:1017700011EA0C1F0CEA131500D00CE013EA0C1F41
:1017800000F025804FF00000F0BC81EA030101F079
:101790000041BDE80081F0BCBDE8004181EA0301E1
:1017A00000F070B9F0BCBDE8004170B500F01CF964
:1017B000097EFC3E00F007B881EA03014FF000000B
:1017C00001F00041704781EA030100F05BB9F0BC11
:1017D000BDE800414FF0000021497047FFFDFBF9D3
:1017E000F7F5F4F2F0EEEDEBE9E8E6E4E3E1E0DE54
:1017F000DDDBDAD8D7D5D4D3D1D0CFCDCCCBCAC8C6
:10180000C7C6C5C4C2C1C0BFBEBDBCBBBAB9B8B7EC
:10181000B6B5B4B3B2B1B0AFAEADACABAAA9A8A8DF
:10182000A7A6A5A4A3A3A2A1A09F9F9E9D9C9C9BAD
:101830009A99999897979695959493939291919058
:101840008F8F8E8E8D8C8C8B8B8A898988888787E9
:101850008685858484838382828181800000FF075E
:101860000000F87F10F0004248BF4042B0FA80F319
:1018700010FA03F10AD0C3F11D0303F580634FEAA8
:10188000415002EB035202EBD12170474FF00000B0
:1018900070470000DFF848C170B51CEA111E1EBF7A
:1018A0001CEA13159EEA0C0F95EA0C0F00F06F80EE
:1018B00081EA030423EA4C134EEAD47E21EA4C1158
:1018C00041F4801143F48013AE44A1FB024CA0FB11
:1018D0000365AEF17F7E361955EB0C05A1FB034C79
:1018E0004CF10003A0FB021C16EB0C06654153F102
:1018F0000003094218BF46F0010613F4007F0BD124
:101900004FEA03314FEA0530340341EA155140EA0A
:1019100016506FF003020AE04FEAC3214FEAC520D8
:10192000F40241EA555140EA56506FF0020202EBD0
:101930002E4201EB025585EACE710AD05FEA440CD3
:1019400018BF24F0004450F1000041F1000120EAEA
:10195000D47040F2FE7C624500D270BDA84214BF34
:101960004FF080444FF04044002E08BF0024BEF1E9
:10197000806FA8BFA1F1C041BDE8704080F28280B5
:101980004FF0000001F1C04101F0004170479EEAB4
:101990000C0F0CEA131518BF95EA0C0F06D04FF088
:1019A000000081EA030E0EF0004170BD00F01CF84B
:1019B0008900013E00F007B800F009B84FEA430C77
:1019C0005FEA5C5C08D081EA030100F05BB84FEA93
:1019D000410C5FEA5C5CF6D14FF0000001497047B2
:1019E0000000FF070000F87F0EF1020E2EF0030E3C
:1019F0005EF8046B364205D4012A43EB030515F566
:101A0000001F12D8012841EB010C1CF5001F0CD857
:101A10000ED14FEAD17C15F5001F0CEB4C0C0CF1EC
:101A2000020C08BF4CEBD37C04E04FF0080C01E043
:101A30004FEAD37C0CEB4C0526FA05F606F00706B8
:101A4000B6F1040C06D20EEB860CBDE870404CF0EB
:101A5000010C6047DFE80CF0090B02024FF0004177
:101A60004FF00000A1F5002170BD19461046012875
:101A700051EB010418BFD4F5001484BF002001F01D
:101A8000004170BD0808A0F500114FEA3101704710
:101A900010B591EA030F48BF83F000433FF5ECAC6B
:101AA000841A71EB030E07D212198EF0004E43EB2D
:101AB0000E03001B61EB0E01DFF8A4C14FEA1154C5
:101AC000A4EB135E1CEA430F18BF9CEA445F00F0CE
:101AD000B08023EA6C03524221EA0451C3EB6C0349
:101AE00038BF5B1EDEF1200C25D322FA0EFC10EB72
:101AF0000C0043FA0EFC41EB0C01CEF1200C03FA72
:101B00000CFC10EB0C0051F10001CEF1200C29D49B
:101B100001EB0451BDE8104012FA0CF258BF7047B7
:101B2000401C1CBFB2F1004F704700280CBF491C7D
:101B300020F00100704712EB020C43EB030218BFC8
:101B40004FF0010C4CEA4202AEF1200EDEF11E0C09
:101B500054D943FA0EFC10EB0C0051F1FF31CEF1D9
:101B60001E0CD5D50CF1010C12FA0CFC404141EBD6
:101B7000010101EB445E5FEA5E5E10D901EB0451A6
:101B8000BDE8104010EBDC7038BFBCF1004F18BF4F
:101B9000704700280CBF491C20F00100704730D26C
:101BA0004FEAD42E11F5001124F400641BD0B1FAD1
:101BB00081F20B3AA41AA41ED2F12003914030FA0C
:101BC00003F31943904001EBCE71002C01EB04515B
:101BD000BDE81040A8BF704701F1C0414FF00000C0
:101BE00001F000417047B0FA80F310FA03F100D120
:101BF00010BDE41A173C4805C90AE4E701EB04519B
:101C000010BD491001EB0451BDE810404FEA30000F
:101C100002E04FF0000170474A0008BF0042F8D0D0
:101C2000B2F5001F28BF704701F000414FF00000DF
:101C300070479CEA445F07D0BDE8104011EA5C0F92
:101C400004BF002100207047BDE8104070B5FFF7C9
:101C5000CBFE00BF40DFF63E83F0004110467047E8
:101C60000000E0FF41000B0ED3F19E0208D950F4B2
:101C700000034FEA032323FA02F048BF40427047B3
:101C800010B500F08CF800BF499224800020704706
:101C90006FF0004282EA2000704700004FF47F0C92
:101CA0001CEAD0121EBF1CEAD11392EA0C0F93EA71
:101CB0000C0F00F0478090EA010F48BF42F4807299
:101CC0004FF0004C4CEA00204CEA012102EB0302E9
:101CD000A0FB0113A2F50002002918BF43F0010385
:101CE0005B0028BF4FEA330342EB22425FEA132C2A
:101CF0004CEBC2502EBFBCEB436FB2F57C0F70476C
:101D00004FEA036CBCF1004F08BF20F00100B2F5B0
:101D10007C0F38BF70470BD582F0FF0212F5803F71
:101D2000C8BF704700F1C040D8BF00F00040704706
:101D300000F5000C5FEA4C0C48BF7047B0F1C040A2
:101D400000F07AB890EA010F0CEAD11348BF42F4D0
:101D50008072624538BF634504D280EA010000F01A
:101D60000040704710B500F01AF800BF8900013E2E
:101D700000F007B800F009B85FEA410C5FEA1C6C9C
:101D800008D080EA010000F057B85FEA400C5FEA33
:101D90001C6CF6D14FF00040A0F5800070470EF1AA
:101DA000020E2EF0030E5EF8044B244204D44FEAD8
:101DB0004102B2F17F4F11D84FEA4003B3F17F4F98
:101DC0000CD80ED14FEAD07CB2F17F4F0CEB4C0C0B
:101DD0000CF1020C08BF4CEBD17C04E04FF0080C76
:101DE00001E04FEAD17C0CEB4C0324FA03F404F03D
:101DF0000704B4F1040C06D20EEB840CBDE81040CD
:101E00004CF0010C6047DFE80CF0070802024FF0CD
:101E10000040A0F5800010BD0846420018BFD2F176
:101E2000807288BF00F0004010BD10B5FEF736FB91
:101E30004FF00001016010BDFF2141EAD050C00504
:101E400070470000641E000800000020240000000D
:101E50006C010008881E000824000020AC06000069
:101E600088010008000000000000000000000000E1
:101E7000010203040102030406070809020406081C
:081E800000000000000000005A
:0400000508000131BD
:00000001FF
