:040000000C942A0032
:04002C000C94AD0083
:14005400CFE5D4E0CDBFDEBFCE51D0400AEA08830024E0E66F
:14006800F0E010E0E538F10711F00192FBCF0083E4E5F0E035
:14007C00A0E6B0E010E000E00BBFE435F10721F0C89531967A
:140090000D92F9CF0E948800FFCF5D9BFECF0CB90895AA929A
:1400A400BA92580104C0F50101915F01F4DFF501208022204C
:1400B800C1F70DE0EEDFB990A990089522242AB886E880BDD0
:1400CC008CE089B920BC82E08BB988E98AB9089581EA8FBDE8
:1400E0008AE08EBD08954A935A930AC0442755274F5F5F4FE3
:1400F4004537E4E05E07D4F3015010402224332420163106E1
:140108008CF3599149910895D9DF78948FEF8ABB22242BBA51
:14011C0004E610E0E2DF22242092600016C080E02090610095
:14013000821570F402E610E0B4DF2BB220942BBA22242092E7
:140144006100209260002092790078940AE010E0C8DFE9CFC4
:1401580008952A920A931A938A939A93AA93EA93FA932FB67A
:14016C002A928AE790E0E0917900FF27E80FF91F2CB0208245
:1401800020907900222029F480917A00853509F07FC02090B6
:140194006000222009F07AC0809179008F5F809379008B30C3
:1401A80009F072C022242092790000917B0011270135E0E06D
:1401BC001E0749F00235E0E01E07F1F00335E0E01E0799F12D
:1401D0005FC020907C002092730020907D00209274002090A8
:1401E4007E002092750020907F002092760020908000209229
:1401F8007700209081002092780046C020907C0020926D00D0
:14020C0020907D0020926E0020907E0020926F0020907F0013
:14022000209270002090800020927100209081002092720000
:140234002DC020907A002092620020907B002092630020909B
:140248007C002092640020907D002092650020907E002092EC
:14025C00660020907F002092670020908000209268002090E6
:1402700081002092690084E580936A0080936B0080936C00FB
:1402840081E08093610080936000F89429902FBEF991E991E8
:0E029800A99199918991199109912990189530
:00000001FF
